{
  "_format": "hh-sol-artifact-1",
  "contractName": "DAO",
  "sourceName": "contracts/DAO.sol",
  "abi": [
    {
      "inputs": [
        {
          "internalType": "uint256",
          "name": "_entranceFee",
          "type": "uint256"
        }
      ],
      "stateMutability": "nonpayable",
      "type": "constructor"
    },
    {
      "inputs": [],
      "name": "alreadyVoter",
      "type": "error"
    },
    {
      "inputs": [
        {
          "internalType": "uint256",
          "name": "",
          "type": "uint256"
        }
      ],
      "name": "notEnoughFee",
      "type": "error"
    },
    {
      "inputs": [],
      "name": "notOwner",
      "type": "error"
    },
    {
      "inputs": [],
      "name": "run_renounceOwnership_instead",
      "type": "error"
    },
    {
      "anonymous": false,
      "inputs": [
        {
          "indexed": true,
          "internalType": "address",
          "name": "member_address",
          "type": "address"
        }
      ],
      "name": "newMember",
      "type": "event"
    },
    {
      "anonymous": false,
      "inputs": [],
      "name": "newProposal",
      "type": "event"
    },
    {
      "inputs": [
        {
          "internalType": "address",
          "name": "",
          "type": "address"
        }
      ],
      "name": "Members",
      "outputs": [
        {
          "internalType": "bool",
          "name": "",
          "type": "bool"
        }
      ],
      "stateMutability": "view",
      "type": "function"
    },
    {
      "inputs": [],
      "name": "checkin",
      "outputs": [],
      "stateMutability": "payable",
      "type": "function"
    },
    {
      "inputs": [],
      "name": "entranceFee",
      "outputs": [
        {
          "internalType": "uint256",
          "name": "",
          "type": "uint256"
        }
      ],
      "stateMutability": "view",
      "type": "function"
    },
    {
      "inputs": [],
      "name": "owner",
      "outputs": [
        {
          "internalType": "address",
          "name": "",
          "type": "address"
        }
      ],
      "stateMutability": "view",
      "type": "function"
    },
    {
      "inputs": [],
      "name": "renounceOwnership",
      "outputs": [],
      "stateMutability": "nonpayable",
      "type": "function"
    },
    {
      "inputs": [
        {
          "internalType": "address",
          "name": "newOwner",
          "type": "address"
        }
      ],
      "name": "transferOwnership",
      "outputs": [],
      "stateMutability": "nonpayable",
      "type": "function"
    }
  ],
  "bytecode": "0x60a060405234801561001057600080fd5b506040516106d03803806106d08339818101604052810190610032919061007b565b8060808181525050506100a8565b600080fd5b6000819050919050565b61005881610045565b811461006357600080fd5b50565b6000815190506100758161004f565b92915050565b60006020828403121561009157610090610040565b5b600061009f84828501610066565b91505092915050565b6080516106066100ca6000396000818161013901526101cc01526106066000f3fe6080604052600436106100555760003560e01c8063649677e11461005a578063715018a6146100855780638da5cb5b1461009c578063baeb0718146100c7578063f2fde38b146100d1578063fd0f0166146100fa575b600080fd5b34801561006657600080fd5b5061006f610137565b60405161007c91906104c5565b60405180910390f35b34801561009157600080fd5b5061009a61015b565b005b3480156100a857600080fd5b506100b16101a6565b6040516100be9190610521565b60405180910390f35b6100cf6101ca565b005b3480156100dd57600080fd5b506100f860048036038101906100f3919061056d565b610353565b005b34801561010657600080fd5b50610121600480360381019061011c919061056d565b610405565b60405161012e91906105b5565b60405180910390f35b7f000000000000000000000000000000000000000000000000000000000000000081565b610163610425565b60008060006101000a81548173ffffffffffffffffffffffffffffffffffffffff021916908373ffffffffffffffffffffffffffffffffffffffff160217905550565b60008054906101000a900473ffffffffffffffffffffffffffffffffffffffff1681565b7f0000000000000000000000000000000000000000000000000000000000000000341061031457600160003373ffffffffffffffffffffffffffffffffffffffff1673ffffffffffffffffffffffffffffffffffffffff16815260200190815260200160002060009054906101000a900460ff1615610275576040517f4fc99f0f00000000000000000000000000000000000000000000000000000000815260040160405180910390fd5b60018060003373ffffffffffffffffffffffffffffffffffffffff1673ffffffffffffffffffffffffffffffffffffffff16815260200190815260200160002060006101000a81548160ff0219169083151502179055503373ffffffffffffffffffffffffffffffffffffffff167f5cafbafb4f314569b4ebe4c412879f191df200750075cce69035fcaf39d4f19460405160405180910390a2610351565b346040517f16e3a9f100000000000000000000000000000000000000000000000000000000815260040161034891906104c5565b60405180910390fd5b565b61035b610425565b600073ffffffffffffffffffffffffffffffffffffffff168173ffffffffffffffffffffffffffffffffffffffff1614156103c2576040517f0580011b00000000000000000000000000000000000000000000000000000000815260040160405180910390fd5b806000806101000a81548173ffffffffffffffffffffffffffffffffffffffff021916908373ffffffffffffffffffffffffffffffffffffffff16021790555050565b60016020528060005260406000206000915054906101000a900460ff1681565b3373ffffffffffffffffffffffffffffffffffffffff1660008054906101000a900473ffffffffffffffffffffffffffffffffffffffff1673ffffffffffffffffffffffffffffffffffffffff16146104aa576040517f251c9d6300000000000000000000000000000000000000000000000000000000815260040160405180910390fd5b565b6000819050919050565b6104bf816104ac565b82525050565b60006020820190506104da60008301846104b6565b92915050565b600073ffffffffffffffffffffffffffffffffffffffff82169050919050565b600061050b826104e0565b9050919050565b61051b81610500565b82525050565b60006020820190506105366000830184610512565b92915050565b600080fd5b61054a81610500565b811461055557600080fd5b50565b60008135905061056781610541565b92915050565b6000602082840312156105835761058261053c565b5b600061059184828501610558565b91505092915050565b60008115159050919050565b6105af8161059a565b82525050565b60006020820190506105ca60008301846105a6565b9291505056fea2646970667358221220dad5fb46bac37384f18a6caa4775a9e87630a5e20ba8023d8e98a08b3ab9b23164736f6c63430008090033",
  "linkReferences": {},
  "deployedLinkReferences": {}
}